:060000000A128A11FC2F18
:100F300083160313061486100611861183120313F9
:100F4000861006118611061CA62FA72FA32F861424
:100F50000630F2001330F100AD30F000F00BAE2F90
:100F6000F10BAE2FF20BAE2FB52F83120313061524
:100F70000630F2001330F100AD30F000F00BBE2F60
:100F8000F10BBE2FF20BBE2FC52F83120313861554
:100F90000630F2001330F100AD30F000F00BCE2F30
:100FA000F10BCE2FF20BCE2FD52F83120313861108
:100FB0000630F2001330F100AD30F000F00BDE2F00
:100FC000F10BDE2FF20BDE2FE52F83120313061138
:100FD0000630F2001330F100AD30F000F00BEE2FD0
:100FE000F10BEE2FF20BEE2FF52F83120313861069
:100FF000A32F0A128A11002883010A128A11982F3E
:02400E00723FFF
:00000001FF
