:060000000A128A11FC2F18
:100F3A0083160313061486100611861183120313EF
:100F4A00861006118611061CAB2FAC2FA82F86140B
:100F5A000330F2000830F1007730F000F00BB32FC5
:100F6A00F10BB32FF20BB32F8312031306150330C1
:100F7A00F2000830F1007730F000F00BC22FF10BCD
:100F8A00C22FF20BC22F8312031386150330F2000D
:100F9A000830F1007730F000F00BD12FF10BD12F90
:100FAA00F20BD12F8312031386110330F20008309B
:100FBA00F1007730F000F00BE02FF10BE02FF20B8D
:100FCA00E02F8312031306110330F2000830F100F8
:100FDA007730F000F00BEF2FF10BEF2FF20BEF2F22
:100FEA00831203138610A82F0A128A11002883017C
:060FFA000A128A119D2F6E
:02400E00723FFF
:00000001FF
